{
  "contractName": "TokenFactory",
  "abi": [
    {
      "constant": true,
      "inputs": [],
      "name": "totalMinted",
      "outputs": [
        {
          "name": "",
          "type": "uint256"
        }
      ],
      "payable": false,
      "stateMutability": "view",
      "type": "function",
      "signature": "0xa2309ff8"
    },
    {
      "constant": true,
      "inputs": [],
      "name": "token",
      "outputs": [
        {
          "name": "",
          "type": "address"
        }
      ],
      "payable": false,
      "stateMutability": "view",
      "type": "function",
      "signature": "0xfc0c546a"
    },
    {
      "inputs": [
        {
          "name": "_token",
          "type": "address"
        }
      ],
      "payable": false,
      "stateMutability": "nonpayable",
      "type": "constructor",
      "signature": "constructor"
    },
    {
      "payable": true,
      "stateMutability": "payable",
      "type": "fallback"
    },
    {
      "anonymous": false,
      "inputs": [
        {
          "indexed": false,
          "name": "contributer",
          "type": "address"
        },
        {
          "indexed": false,
          "name": "amount",
          "type": "uint256"
        }
      ],
      "name": "Contribution",
      "type": "event",
      "signature": "0x4d154d4aae216bed6d0926db77c00df2b57c6b5ba4eee05775de20facede3a7b"
    },
    {
      "constant": false,
      "inputs": [],
      "name": "contribute",
      "outputs": [],
      "payable": true,
      "stateMutability": "payable",
      "type": "function",
      "signature": "0xd7bb99ba"
    }
  ],
  "bytecode": "0x608060405234801561001057600080fd5b50604051602080610320833981016040525160008054600160a060020a0319908116331790915560028054600160a060020a03909316929091169190911790556102c18061005f6000396000f3006080604052600436106100565763ffffffff7c0100000000000000000000000000000000000000000000000000000000600035041663a2309ff8811461005b578063d7bb99ba14610082578063fc0c546a1461008c575b600080fd5b34801561006757600080fd5b506100706100ca565b60408051918252519081900360200190f35b61008a6100d0565b005b34801561009857600080fd5b506100a1610279565b6040805173ffffffffffffffffffffffffffffffffffffffff9092168252519081900360200190f35b60015481565b600034811061014057604080517f08c379a000000000000000000000000000000000000000000000000000000000815260206004820152601360248201527f557365722073656e74206e6f2065746865722e00000000000000000000000000604482015290519081900360640190fd5b6000805460405173ffffffffffffffffffffffffffffffffffffffff909116913480156108fc02929091818181858888f19350505050158015610187573d6000803e3d6000fd5b5050600254604080517f40c10f19000000000000000000000000000000000000000000000000000000008152336004820152600a3402602482018190529151919273ffffffffffffffffffffffffffffffffffffffff16916340c10f19916044808201926020929091908290030181600087803b15801561020757600080fd5b505af115801561021b573d6000803e3d6000fd5b505050506040513d602081101561023157600080fd5b50506001805482019055604080513381526020810183905281517f4d154d4aae216bed6d0926db77c00df2b57c6b5ba4eee05775de20facede3a7b929181900390910190a150565b60025473ffffffffffffffffffffffffffffffffffffffff16815600a165627a7a72305820c71d9b2acbc907ed9daa7491e50208d0a2e3351e2d93c97f2ab26257ea7ee69a0029",
  "source": "// TokenFactory.sol\n// Enigma, 2018\n// Mint voting tokens from a simple crowdsale.\n\npragma solidity ^0.4.24;\n\nimport \"./VotingToken.sol\";\n\ncontract TokenFactory {\n  address owner;  // where the Ether contributions are sent to\n  uint public totalMinted;  // keep a tab on the number of voting tokens minted\n  VotingToken public token;\n\n  // NOTE: defines number of tokens minted, not ether spent\n  event Contribution(address contributer, uint amount);\n\n  /*\n   * The constructor intializes a VotingToken.\n   */\n  constructor(address _token) public {\n    owner = msg.sender;\n    token = VotingToken(_token);\n  }\n\n  /*\n   * Allow a user to pay for voting tokens.\n   */\n  function contribute() external payable {\n    require(msg.value > 0, \"User sent no ether.\");\n    owner.transfer(msg.value);  // transfer the Ether to the owner\n    uint amount = msg.value * 10;  // define an arbitrary exchange rate\n    token.mint(msg.sender, amount);  // mint tokens\n    totalMinted += amount;\n    emit Contribution(msg.sender, amount);\n  }\n\n  function() external payable {\n    revert();\n  }\n\n}",
  "sourcePath": "/Users/adityapalepu/Startups/enigma/enigma-template-dapp/contracts/TokenFactory.sol",
  "compiler": {
    "name": "solc",
    "version": "0.4.24+commit.e67f0147.Emscripten.clang"
  },
  "schemaVersion": "2.0.0",
  "updatedAt": "2018-10-29T17:20:58.355Z"
}