{
  "contractName": "Voting",
  "abi": [
    {
      "constant": true,
      "inputs": [
        {
          "name": "",
          "type": "address"
        }
      ],
      "name": "bank",
      "outputs": [
        {
          "name": "tokenBalance",
          "type": "uint256"
        }
      ],
      "payable": false,
      "stateMutability": "view",
      "type": "function",
      "signature": "0x529a1baf"
    },
    {
      "constant": true,
      "inputs": [],
      "name": "pollCount",
      "outputs": [
        {
          "name": "",
          "type": "uint256"
        }
      ],
      "payable": false,
      "stateMutability": "view",
      "type": "function",
      "signature": "0x9207891d"
    },
    {
      "constant": true,
      "inputs": [
        {
          "name": "",
          "type": "uint256"
        }
      ],
      "name": "polls",
      "outputs": [
        {
          "name": "creator",
          "type": "address"
        },
        {
          "name": "status",
          "type": "uint8"
        },
        {
          "name": "quorumPercentage",
          "type": "uint256"
        },
        {
          "name": "yeaVotes",
          "type": "uint256"
        },
        {
          "name": "nayVotes",
          "type": "uint256"
        },
        {
          "name": "description",
          "type": "string"
        },
        {
          "name": "expirationTime",
          "type": "uint256"
        }
      ],
      "payable": false,
      "stateMutability": "view",
      "type": "function",
      "signature": "0xac2f0074"
    },
    {
      "constant": true,
      "inputs": [],
      "name": "enigma",
      "outputs": [
        {
          "name": "",
          "type": "address"
        }
      ],
      "payable": false,
      "stateMutability": "view",
      "type": "function",
      "signature": "0xb24fd5c5"
    },
    {
      "constant": true,
      "inputs": [],
      "name": "token",
      "outputs": [
        {
          "name": "",
          "type": "address"
        }
      ],
      "payable": false,
      "stateMutability": "view",
      "type": "function",
      "signature": "0xfc0c546a"
    },
    {
      "inputs": [
        {
          "name": "_token",
          "type": "address"
        },
        {
          "name": "_enigma",
          "type": "address"
        }
      ],
      "payable": false,
      "stateMutability": "nonpayable",
      "type": "constructor",
      "signature": "constructor"
    },
    {
      "anonymous": false,
      "inputs": [
        {
          "indexed": false,
          "name": "voter",
          "type": "address"
        },
        {
          "indexed": false,
          "name": "pollID",
          "type": "uint256"
        },
        {
          "indexed": false,
          "name": "vote",
          "type": "bytes"
        },
        {
          "indexed": false,
          "name": "weight",
          "type": "uint256"
        }
      ],
      "name": "voteCasted",
      "type": "event",
      "signature": "0xe95eb7d43e66fe71c9e83b9d854df9bbf195378b75da7c121b7910630d753871"
    },
    {
      "anonymous": false,
      "inputs": [
        {
          "indexed": false,
          "name": "creator",
          "type": "address"
        },
        {
          "indexed": false,
          "name": "pollID",
          "type": "uint256"
        },
        {
          "indexed": false,
          "name": "quorumPercentage",
          "type": "uint256"
        },
        {
          "indexed": false,
          "name": "description",
          "type": "string"
        },
        {
          "indexed": false,
          "name": "votingLength",
          "type": "uint256"
        }
      ],
      "name": "pollCreated",
      "type": "event",
      "signature": "0x45e74d302a4ed9fd7b7b46e4ac6ff1a3459046b18fcb30923f8af6f11ebdc26e"
    },
    {
      "anonymous": false,
      "inputs": [
        {
          "indexed": false,
          "name": "status",
          "type": "bool"
        }
      ],
      "name": "pollStatusUpdate",
      "type": "event",
      "signature": "0xa09418b9290be8509b4127e8df442ca7ca9aa4be676367d2a5c6586ab1425344"
    },
    {
      "constant": false,
      "inputs": [
        {
          "name": "_quorumPct",
          "type": "uint256"
        },
        {
          "name": "_description",
          "type": "string"
        },
        {
          "name": "_voteLength",
          "type": "uint256"
        }
      ],
      "name": "createPoll",
      "outputs": [
        {
          "name": "",
          "type": "uint256"
        }
      ],
      "payable": false,
      "stateMutability": "nonpayable",
      "type": "function",
      "signature": "0x236e1b93"
    },
    {
      "constant": false,
      "inputs": [
        {
          "name": "_pollID",
          "type": "uint256"
        }
      ],
      "name": "endPoll",
      "outputs": [],
      "payable": false,
      "stateMutability": "nonpayable",
      "type": "function",
      "signature": "0xf43b8778"
    },
    {
      "constant": false,
      "inputs": [
        {
          "name": "_pollID",
          "type": "uint256"
        },
        {
          "name": "_yeaVotes",
          "type": "uint256"
        },
        {
          "name": "_nayVotes",
          "type": "uint256"
        }
      ],
      "name": "updatePollStatus",
      "outputs": [],
      "payable": false,
      "stateMutability": "nonpayable",
      "type": "function",
      "signature": "0x4e0e931a"
    },
    {
      "constant": true,
      "inputs": [
        {
          "name": "_pollID",
          "type": "uint256"
        }
      ],
      "name": "getPollStatus",
      "outputs": [
        {
          "name": "",
          "type": "uint8"
        }
      ],
      "payable": false,
      "stateMutability": "view",
      "type": "function",
      "signature": "0xb0c095e3"
    },
    {
      "constant": true,
      "inputs": [
        {
          "name": "_pollID",
          "type": "uint256"
        }
      ],
      "name": "getPollExpirationTime",
      "outputs": [
        {
          "name": "",
          "type": "uint256"
        }
      ],
      "payable": false,
      "stateMutability": "view",
      "type": "function",
      "signature": "0xe7f76619"
    },
    {
      "constant": true,
      "inputs": [
        {
          "name": "_voter",
          "type": "address"
        }
      ],
      "name": "getPollHistory",
      "outputs": [
        {
          "name": "",
          "type": "uint256[]"
        }
      ],
      "payable": false,
      "stateMutability": "view",
      "type": "function",
      "signature": "0x0de88fd8"
    },
    {
      "constant": true,
      "inputs": [
        {
          "name": "_pollID",
          "type": "uint256"
        },
        {
          "name": "_voter",
          "type": "address"
        }
      ],
      "name": "getPollInfoForVoter",
      "outputs": [
        {
          "name": "",
          "type": "bytes"
        },
        {
          "name": "",
          "type": "uint256"
        }
      ],
      "payable": false,
      "stateMutability": "view",
      "type": "function",
      "signature": "0x6cee7be5"
    },
    {
      "constant": true,
      "inputs": [
        {
          "name": "_pollID",
          "type": "uint256"
        }
      ],
      "name": "getVotersForPoll",
      "outputs": [
        {
          "name": "",
          "type": "address[]"
        }
      ],
      "payable": false,
      "stateMutability": "view",
      "type": "function",
      "signature": "0xdf78b81c"
    },
    {
      "constant": false,
      "inputs": [
        {
          "name": "_pollID",
          "type": "uint256"
        },
        {
          "name": "_encryptedVote",
          "type": "bytes"
        },
        {
          "name": "_weight",
          "type": "uint256"
        }
      ],
      "name": "castVote",
      "outputs": [],
      "payable": false,
      "stateMutability": "nonpayable",
      "type": "function",
      "signature": "0x291ae9b3"
    },
    {
      "constant": true,
      "inputs": [
        {
          "name": "_pollID",
          "type": "uint256"
        },
        {
          "name": "_votes",
          "type": "uint256[]"
        },
        {
          "name": "_weights",
          "type": "uint256[]"
        }
      ],
      "name": "countVotes",
      "outputs": [
        {
          "name": "",
          "type": "uint256"
        },
        {
          "name": "",
          "type": "uint256"
        },
        {
          "name": "",
          "type": "uint256"
        }
      ],
      "payable": false,
      "stateMutability": "pure",
      "type": "function",
      "signature": "0xd2025b1d"
    },
    {
      "constant": true,
      "inputs": [
        {
          "name": "_pollID",
          "type": "uint256"
        },
        {
          "name": "_user",
          "type": "address"
        }
      ],
      "name": "userHasVoted",
      "outputs": [
        {
          "name": "",
          "type": "bool"
        }
      ],
      "payable": false,
      "stateMutability": "view",
      "type": "function",
      "signature": "0x5fc48d7e"
    },
    {
      "constant": false,
      "inputs": [
        {
          "name": "_numTokens",
          "type": "uint256"
        }
      ],
      "name": "stakeVotingTokens",
      "outputs": [],
      "payable": false,
      "stateMutability": "nonpayable",
      "type": "function",
      "signature": "0x0da65600"
    },
    {
      "constant": false,
      "inputs": [
        {
          "name": "_numTokens",
          "type": "uint256"
        }
      ],
      "name": "withdrawTokens",
      "outputs": [],
      "payable": false,
      "stateMutability": "nonpayable",
      "type": "function",
      "signature": "0x315a095d"
    },
    {
      "constant": true,
      "inputs": [
        {
          "name": "_voter",
          "type": "address"
        }
      ],
      "name": "getLockedAmount",
      "outputs": [
        {
          "name": "",
          "type": "uint256"
        }
      ],
      "payable": false,
      "stateMutability": "view",
      "type": "function",
      "signature": "0x929ec537"
    },
    {
      "constant": true,
      "inputs": [
        {
          "name": "_voter",
          "type": "address"
        }
      ],
      "name": "getTokenStake",
      "outputs": [
        {
          "name": "",
          "type": "uint256"
        }
      ],
      "payable": false,
      "stateMutability": "view",
      "type": "function",
      "signature": "0x0ed70ed1"
    }
  ],
  "bytecode": "0x608060405234801561001057600080fd5b50604051604080611f20833981016040528051602090910151600160a060020a0382161580159061004a5750600354600160a060020a0316155b151561005557600080fd5b600160a060020a038116158015906100765750600454600160a060020a0316155b151561008157600080fd5b60038054600160a060020a03938416600160a060020a03199182161790915560048054929093169116179055611e64806100bc6000396000f3006080604052600436106101115763ffffffff7c01000000000000000000000000000000000000000000000000000000006000350416630da6560081146101165780630de88fd8146101305780630ed70ed1146101a1578063236e1b93146101d4578063291ae9b3146101fb578063315a095d146102225780634e0e931a1461023a578063529a1baf146102585780635fc48d7e146102795780636cee7be5146102b15780639207891d14610354578063929ec53714610369578063ac2f00741461038a578063b0c095e31461045b578063b24fd5c514610497578063d2025b1d146104c8578063df78b81c14610579578063e7f7661914610591578063f43b8778146105a9578063fc0c546a146105c1575b600080fd5b34801561012257600080fd5b5061012e6004356105d6565b005b34801561013c57600080fd5b50610151600160a060020a03600435166107ef565b60408051602080825283518183015283519192839290830191858101910280838360005b8381101561018d578181015183820152602001610175565b505050509050019250505060405180910390f35b3480156101ad57600080fd5b506101c2600160a060020a036004351661085e565b60408051918252519081900360200190f35b3480156101e057600080fd5b506101c2600480359060248035908101910135604435610879565b34801561020757600080fd5b5061012e600480359060248035908101910135604435610b39565b34801561022e57600080fd5b5061012e600435610f05565b34801561024657600080fd5b5061012e600435602435604435611057565b34801561026457600080fd5b506101c2600160a060020a03600435166111e5565b34801561028557600080fd5b5061029d600435600160a060020a03602435166111f7565b604080519115158252519081900360200190f35b3480156102bd57600080fd5b506102d5600435600160a060020a0360243516611293565b6040518080602001838152602001828103825284818151815260200191508051906020019080838360005b83811015610318578181015183820152602001610300565b50505050905090810190601f1680156103455780820380516001836020036101000a031916815260200191505b50935050505060405180910390f35b34801561036057600080fd5b506101c26113e9565b34801561037557600080fd5b506101c2600160a060020a03600435166113ef565b34801561039657600080fd5b506103a260043561147a565b604051600160a060020a0388168152602081018760038111156103c157fe5b60ff16815260200186815260200185815260200184815260200180602001838152602001828103825284818151815260200191508051906020019080838360005b8381101561041a578181015183820152602001610402565b50505050905090810190601f1680156104475780820380516001836020036101000a031916815260200191505b509850505050505050505060405180910390f35b34801561046757600080fd5b50610473600435611565565b6040518082600381111561048357fe5b60ff16815260200191505060405180910390f35b3480156104a357600080fd5b506104ac6115ee565b60408051600160a060020a039092168252519081900360200190f35b3480156104d457600080fd5b5060408051602060046024803582810135848102808701860190975280865261055b96843596369660449591949091019291829185019084908082843750506040805187358901803560208181028481018201909552818452989b9a9989019892975090820195509350839250850190849080828437509497506115fd9650505050505050565b60408051938452602084019290925282820152519081900360600190f35b34801561058557600080fd5b506101516004356116b7565b34801561059d57600080fd5b506101c2600435611790565b3480156105b557600080fd5b5061012e600435611811565b3480156105cd57600080fd5b506104ac611a4a565b600354604080517f70a0823100000000000000000000000000000000000000000000000000000000815233600482015290518392600160a060020a0316916370a082319160248083019260209291908290030181600087803b15801561063b57600080fd5b505af115801561064f573d6000803e3d6000fd5b505050506040513d602081101561066557600080fd5b505110156106bd576040805160e560020a62461bcd02815260206004820181905260248201527f5573657220646f6573206e6f74206861766520656e6f75676820746f6b656e73604482015290519081900360640190fd5b600354604080517f23b872dd000000000000000000000000000000000000000000000000000000008152336004820152306024820152604481018490529051600160a060020a03909216916323b872dd916064808201926020929091908290030181600087803b15801561073057600080fd5b505af1158015610744573d6000803e3d6000fd5b505050506040513d602081101561075a57600080fd5b505115156107d7576040805160e560020a62461bcd028152602060048201526024808201527f5573657220646964206e6f7420617070726f766520746f6b656e207472616e7360448201527f6665722e00000000000000000000000000000000000000000000000000000000606482015290519081900360840190fd5b33600090815260016020526040902080549091019055565b600160a060020a03811660009081526001602090815260409182902060020180548351818402810184019094528084526060939283018282801561085257602002820191906000526020600020905b81548152602001906001019080831161083e575b50505050509050919050565b600160a060020a031660009081526001602052604090205490565b6000610883611c98565b6064861115610902576040805160e560020a62461bcd02815260206004820152603460248201527f51756f72756d2050657263656e74616765206d757374206265206c657373207460448201527f68616e206f7220657175616c20746f2031303025000000000000000000000000606482015290519081900360840190fd5b6000831161095a576040805160e560020a62461bcd02815260206004820152601e60248201527f54686520766f74696e6720706572696f642063616e6e6f7420626520302e0000604482015290519081900360640190fd5b33815260006020820181905250604080820187905280516020601f87018190048102820181019092528581529086908690819084018382808284375050505060a0840192909252505042830160e08201526000805460018101808355918052825160089091027f290decd9548b62a8d60345a988386fc84ba6bc95484008f6362f93160ef3e563018054600160a060020a0390921673ffffffffffffffffffffffffffffffffffffffff19909216919091178082556020840151849291829074ff0000000000000000000000000000000000000000191660a060020a836003811115610a4257fe5b021790555060408201516001820155606082015160028201556080820151600382015560a08201518051610a80916004840191602090910190611cde565b5060c08201518051610a9c916005840191602090910190611d5c565b5060e091909101516006909101555060028054600101908190556040805133808252602082018490529181018990526080810186905260a0606082018181529082018890527f45e74d302a4ed9fd7b7b46e4ac6ff1a3459046b18fcb30923f8af6f11ebdc26e93918a918a918a918a919060c082018585808284376040519201829003995090975050505050505050a15050600254949350505050565b60008460008110158015610b4e575060025481105b1515610b92576040805160e560020a62461bcd0281526020600482015260146024820152600080516020611e19833981519152604482015290519081900360640190fd5b6000610b9d87611565565b6003811115610ba857fe5b14610bfd576040805160e560020a62461bcd02815260206004820152601160248201527f506f6c6c2068617320657870697265642e000000000000000000000000000000604482015290519081900360640190fd5b610c0786336111f7565b15610c5c576040805160e560020a62461bcd02815260206004820152601760248201527f557365722068617320616c726561647920766f7465642e000000000000000000604482015290519081900360640190fd5b42610c6687611790565b11610c7057600080fd5b82610c7a3361085e565b1015610cf6576040805160e560020a62461bcd02815260206004820152602860248201527f5573657220646f6573206e6f74206861766520656e6f756768207374616b656460448201527f20746f6b656e732e000000000000000000000000000000000000000000000000606482015290519081900360840190fd5b60008311610d74576040805160e560020a62461bcd02815260206004820152602360248201527f55736572206d7573742061646420612077656967687420666f7220746865207660448201527f6f74650000000000000000000000000000000000000000000000000000000000606482015290519081900360840190fd5b3360009081526001602081815260408084208a85528084018352908420879055828252600201805492830181558352822001879055805487908110610db557fe5b9060005260206000209060080201915060606040519081016040528060011515815260200186868080601f0160208091040260200160405190810160405280939291908181526020018383808284375050509284525050506020908101859052336000908152600785018252604090208251815460ff19169015151781558282015180519192610e4d92600185019290910190611cde565b50604091820151600290910155600583018054600181018255600091825260209182902001805473ffffffffffffffffffffffffffffffffffffffff19163390811790915582518181529182018990526060820186905260809282018381529282018790527fe95eb7d43e66fe71c9e83b9d854df9bbf195378b75da7c121b7910630d75387192909189918991899189919060a0820185858082843760405192018290039850909650505050505050a1505050505050565b6000610f10336113ef565b90508181610f1d3361085e565b031015610f9a576040805160e560020a62461bcd02815260206004820152602b60248201527f5573657220697320747279696e6720746f20776974686472617720746f6f206d60448201527f616e7920746f6b656e732e000000000000000000000000000000000000000000606482015290519081900360840190fd5b3360008181526001602090815260408083208054879003905560035481517fa9059cbb0000000000000000000000000000000000000000000000000000000081526004810195909552602485018790529051600160a060020a039091169363a9059cbb9360448083019493928390030190829087803b15801561101c57600080fd5b505af1158015611030573d6000803e3d6000fd5b505050506040513d602081101561104657600080fd5b5051151561105357600080fd5b5050565b600080846000811015801561106d575060025481105b15156110b1576040805160e560020a62461bcd0281526020600482015260146024820152600080516020611e19833981519152604482015290519081900360640190fd5b600454600160a060020a031633146110c857600080fd5b60008054879081106110d657fe5b60009182526020909120600890910201600281018690556003810185905592506111146111038686611a59565b60018501549063ffffffff611a6c16565b600284015461112a90606463ffffffff611a6c16565b119150811561116b57825474ff000000000000000000000000000000000000000019167402000000000000000000000000000000000000000017835561119f565b825474ff00000000000000000000000000000000000000001916740300000000000000000000000000000000000000001783555b6111a886611a95565b60408051831515815290517fa09418b9290be8509b4127e8df442ca7ca9aa4be676367d2a5c6586ab14253449181900360200190a1505050505050565b60016020526000908152604090205481565b6000826000811015801561120c575060025481105b1515611250576040805160e560020a62461bcd0281526020600482015260146024820152600080516020611e19833981519152604482015290519081900360640190fd5b600080548590811061125e57fe5b60009182526020808320600160a060020a03871684526007600890930201919091019052604090205460ff1691505092915050565b606060008060008086600081101580156112ae575060025481105b15156112f2576040805160e560020a62461bcd0281526020600482015260146024820152600080516020611e19833981519152604482015290519081900360640190fd5b6112fc88886111f7565b151561130757600080fd5b600080548990811061131557fe5b60009182526020808320600160a060020a038b1684526008929092029091016007810182526040928390206002808201546001928301805487519481161561010002600019011692909204601f81018690048602840186019096528583529298509650909450859285928491908301828280156113d35780601f106113a8576101008083540402835291602001916113d3565b820191906000526020600020905b8154815290600101906020018083116113b657829003601f168201915b5050505050915095509550505050509250929050565b60025481565b600160a060020a03811660009081526001602052604081208180805b6002840154821015611470576002840180548390811061142757fe5b906000526020600020015490508284600101600083815260200190815260200160002054111561146557600081815260018501602052604090205492505b60019091019061140b565b5090949350505050565b600080548290811061148857fe5b600091825260209182902060089190910201805460018083015460028085015460038601546004870180546040805161010098831615989098026000190190911694909404601f81018a90048a0287018a01909452838652600160a060020a038716995060a060020a90960460ff16979396919590949193919290918301828280156115555780601f1061152a57610100808354040283529160200191611555565b820191906000526020600020905b81548152906001019060200180831161153857829003601f168201915b5050505050908060060154905087565b6000816000811015801561157a575060025481105b15156115be576040805160e560020a62461bcd0281526020600482015260146024820152600080516020611e19833981519152604482015290519081900360640190fd5b60008054849081106115cc57fe5b600091825260209091206008909102015460a060020a900460ff169392505050565b600454600160a060020a031681565b6000806000806000808651885114151561161657600080fd5b5060005b87518110156116a957878181518110151561163157fe5b906020019060200201516000141561166457868181518110151561165157fe5b90602001906020020151820191506116a1565b878181518110151561167257fe5b90602001906020020151600114156116a157868181518110151561169257fe5b90602001906020020151830192505b60010161161a565b509697909695509350505050565b606081600081101580156116cc575060025481105b1515611710576040805160e560020a62461bcd0281526020600482015260146024820152600080516020611e19833981519152604482015290519081900360640190fd5b600080548490811061171e57fe5b906000526020600020906008020160050180548060200260200160405190810160405280929190818152602001828054801561178357602002820191906000526020600020905b8154600160a060020a03168152600190910190602001808311611765575b5050505050915050919050565b600081600081101580156117a5575060025481105b15156117e9576040805160e560020a62461bcd0281526020600482015260146024820152600080516020611e19833981519152604482015290519081900360640190fd5b60008054849081106117f757fe5b906000526020600020906008020160060154915050919050565b8060008110158015611824575060025481105b1515611868576040805160e560020a62461bcd0281526020600482015260146024820152600080516020611e19833981519152604482015290519081900360640190fd5b600080548390811061187657fe5b6000918252602090912060089091020154600160a060020a0316331461190b576040805160e560020a62461bcd028152602060048201526024808201527f55736572206973206e6f74207468652063726561746f72206f6620746865207060448201527f6f6c6c2e00000000000000000000000000000000000000000000000000000000606482015290519081900360840190fd5b60008080548490811061191a57fe5b600091825260209091206008909102015460a060020a900460ff16600381111561194057fe5b14611995576040805160e560020a62461bcd02815260206004820152601860248201527f566f7465206973206e6f7420696e2070726f67726573732e0000000000000000604482015290519081900360640190fd5b61199e82611790565b4210156119f5576040805160e560020a62461bcd02815260206004820152601d60248201527f566f74696e6720706572696f6420686173206e6f742065787069726564000000604482015290519081900360640190fd5b6001600083815481101515611a0657fe5b60009182526020909120600890910201805474ff0000000000000000000000000000000000000000191660a060020a836003811115611a4157fe5b02179055505050565b600354600160a060020a031681565b81810182811015611a6657fe5b92915050565b6000821515611a7d57506000611a66565b50818102818382811515611a8d57fe5b0414611a6657fe5b611a9d611c98565b600080600084815481101515611aaf57fe5b60009182526020918290206040805161010081019091526008909202018054600160a060020a0381168352919290919083019060ff60a060020a909104166003811115611af857fe5b6003811115611b0357fe5b8152602001600182015481526020016002820154815260200160038201548152602001600482018054600181600116156101000203166002900480601f016020809104026020016040519081016040528092919081815260200182805460018160011615610100020316600290048015611bbe5780601f10611b9357610100808354040283529160200191611bbe565b820191906000526020600020905b815481529060010190602001808311611ba157829003601f168201915b5050505050815260200160058201805480602002602001604051908101604052809291908181526020018280548015611c2057602002820191906000526020600020905b8154600160a060020a03168152600190910190602001808311611c02575b505050505081526020016006820154815250509250600091505b8260c0015151821015611c925760c0830151805183908110611c5857fe5b6020908102909101810151600160a060020a0381166000908152600180845260408083208984528201909452928120559201919050611c3a565b50505050565b6040805161010081019091526000808252602082019081526020016000815260200160008152602001600081526020016060815260200160608152602001600081525090565b828054600181600116156101000203166002900490600052602060002090601f016020900481019282601f10611d1f57805160ff1916838001178555611d4c565b82800160010185558215611d4c579182015b82811115611d4c578251825591602001919060010190611d31565b50611d58929150611dca565b5090565b828054828255906000526020600020908101928215611dbe579160200282015b82811115611dbe578251825473ffffffffffffffffffffffffffffffffffffffff1916600160a060020a03909116178255602090920191600190910190611d7c565b50611d58929150611de7565b611de491905b80821115611d585760008155600101611dd0565b90565b611de491905b80821115611d5857805473ffffffffffffffffffffffffffffffffffffffff19168155600101611ded56004e6f7420612076616c696420706f6c6c2049642e000000000000000000000000a165627a7a72305820d05cac1b244daa1b11c9b948707eac7a5dca74310ccf4e183759e95d7a6bf5570029",
  "source": "// Voting.sol\n// Enigma, 2018\n// Implement secret voting.\n\npragma solidity ^0.4.24;\n\nimport \"openzeppelin-solidity/contracts/math/SafeMath.sol\";\nimport \"./VotingToken.sol\";\n\ncontract Voting {\n  using SafeMath for uint;\n\n  /* EVENTS */\n  event voteCasted(address voter, uint pollID, bytes vote, uint weight);\n  event pollCreated(address creator, uint pollID, uint quorumPercentage, string description, uint votingLength);\n  event pollStatusUpdate(bool status);\n\n  /* Determine the current state of a poll */\n  enum PollStatus { IN_PROGRESS, TALLY, PASSED, REJECTED }\n\n  /* POLL */\n  struct Poll {\n    address creator;\n    PollStatus status;\n    uint quorumPercentage;\n    uint yeaVotes;\n    uint nayVotes;\n    string description;\n    address[] voters;\n    uint expirationTime;\n    mapping(address => Voter) voterInfo;\n  }\n\n  /* VOTER */\n  struct Voter {\n    bool hasVoted;\n    bytes vote;\n    uint weight;\n  }\n\n  /* TOKEN MANAGER */\n  struct TokenManager {\n    uint tokenBalance;\n    mapping(uint => uint) lockedTokens;\n    uint[] participatedPolls;\n  }\n\n  /* STATE VARIABLES */\n  Poll[] public polls;\n  mapping(address => TokenManager) public bank;\n  uint public pollCount;\n  VotingToken public token;\n  address public enigma;\n\n  /* CONSTRUCTOR */\n  constructor(address _token, address _enigma) public {\n    require(_token != 0 && address(token) == 0);\n    require(_enigma != 0 && address(enigma) == 0);\n    token = VotingToken(_token);\n    enigma = _enigma;\n  }\n\n  /* POLL OPERATIONS */\n\n  /*\n   * Creates a new poll with a specified quorum percentage.\n   */\n  function createPoll(uint _quorumPct, string _description, uint _voteLength) external returns (uint){\n    require(_quorumPct <= 100, \"Quorum Percentage must be less than or equal to 100%\");\n    require(_voteLength > 0, \"The voting period cannot be 0.\");\n    Poll memory curPoll;\n    curPoll.creator = msg.sender;\n    curPoll.status = PollStatus.IN_PROGRESS;\n    curPoll.quorumPercentage = _quorumPct;\n    curPoll.description = _description;\n    curPoll.expirationTime = now + _voteLength * 1 seconds;\n    polls.push(curPoll);\n    pollCount++; \n    emit pollCreated(msg.sender, pollCount, _quorumPct, _description, _voteLength); \n    return pollCount; \n  }\n\n  /*\n   * Ends a poll. Only the creator of a given poll can end that poll.\n   */\n  function endPoll(uint _pollID) external validPoll(_pollID) {\n    require(msg.sender == polls[_pollID].creator, \"User is not the creator of the poll.\");\n    require(polls[_pollID].status == PollStatus.IN_PROGRESS, \"Vote is not in progress.\");\n    require(now >= getPollExpirationTime(_pollID), \"Voting period has not expired\");\n    polls[_pollID].status = PollStatus.TALLY;\n  }\n\n  /*\n   * The callback function. Checks if a poll was passed given the quorum percentage and vote distribution.\n   * NOTE: Only the Enigma contract can call this function.\n   */\n  function updatePollStatus(uint _pollID, uint _yeaVotes, uint _nayVotes) public validPoll(_pollID) onlyEnigma() {\n    Poll storage curPoll = polls[_pollID];\n    curPoll.yeaVotes = _yeaVotes;\n    curPoll.nayVotes = _nayVotes;\n\n    bool pollStatus = (curPoll.yeaVotes.mul(100)) > curPoll.quorumPercentage.mul(curPoll.yeaVotes.add(curPoll.nayVotes));\n    if (pollStatus) {\n      curPoll.status = PollStatus.PASSED;\n    }\n    else {\n      curPoll.status = PollStatus.REJECTED;\n    }\n\n    updateTokenBank(_pollID);\n\n    emit pollStatusUpdate(pollStatus);\n  }\n\n  /*\n   * Gets the status of a poll.\n   */\n  function getPollStatus(uint _pollID) public view validPoll(_pollID) returns (PollStatus) {\n    return polls[_pollID].status;\n  }\n\n  /*\n   * Gets the expiration date of a poll.\n   */\n  function getPollExpirationTime(uint _pollID) public view validPoll(_pollID) returns (uint) {\n    return polls[_pollID].expirationTime;\n  }\n\n  /*\n   * Gets the complete list of polls a user has voted in.\n   */\n  function getPollHistory(address _voter) public view returns(uint[]) {\n    return bank[_voter].participatedPolls;\n  }\n\n  /*\n   * Gets a voter's encrypted vote and weight for a given expired poll.\n   */\n  function getPollInfoForVoter(uint _pollID, address _voter) public view validPoll(_pollID) returns (bytes, uint) {\n    require(userHasVoted(_pollID, _voter));\n    Poll storage curPoll = polls[_pollID];\n    bytes vote = curPoll.voterInfo[_voter].vote;\n    uint weight = curPoll.voterInfo[_voter].weight;\n    return (vote, weight);\n  }\n\n  /*\n   * Gets all the voters of a poll.\n   */\n  function getVotersForPoll(uint _pollID) public view validPoll(_pollID) returns (address[]) {\n    return polls[_pollID].voters;\n  }\n\n  /*\n   * Modifier that checks for a valid poll ID.\n   */\n  modifier validPoll(uint _pollID) {\n    require(_pollID >= 0 && _pollID < pollCount, \"Not a valid poll Id.\");\n    _;\n  }\n\n  /*\n   * Modifier that checks that the contract caller is the Enigma contract.\n   */\n  modifier onlyEnigma() {\n    require(msg.sender == enigma);\n    _;\n  }\n\n  /* VOTE OPERATIONS */\n\n  /*\n   * Casts a vote for a given poll.\n   * NOTE: _weight is denominated in *wei*.\n   */\n  function castVote(uint _pollID, bytes _encryptedVote, uint _weight) external validPoll(_pollID) {\n    require(getPollStatus(_pollID) == PollStatus.IN_PROGRESS, \"Poll has expired.\");\n    require(!userHasVoted(_pollID, msg.sender), \"User has already voted.\");\n    require(getPollExpirationTime(_pollID) > now);\n    require(getTokenStake(msg.sender) >= _weight, \"User does not have enough staked tokens.\");\n    require(_weight > 0, \"User must add a weight for the vote\"); \n\n    // update token bank\n    bank[msg.sender].lockedTokens[_pollID] = _weight;\n    bank[msg.sender].participatedPolls.push(_pollID);\n\n    Poll storage curPoll = polls[_pollID];\n\n    curPoll.voterInfo[msg.sender] = Voter({\n        hasVoted: true,\n        vote: _encryptedVote,\n        weight: _weight\n    });\n\n    curPoll.voters.push(msg.sender);\n\n    emit voteCasted(msg.sender, _pollID, _encryptedVote, _weight);\n  }\n\n  /*\n   * The callable function that is computed by the SGX node. Tallies votes.\n   */\n  function countVotes(uint _pollID, uint[] _votes, uint[] _weights) public pure returns (uint, uint, uint) {\n    require(_votes.length == _weights.length);\n    uint yeaVotes;\n    uint nayVotes;\n    for (uint i = 0; i < _votes.length; i++) {\n      if (_votes[i] == 0) nayVotes += _weights[i];\n      else if (_votes[i] == 1) yeaVotes += _weights[i];\n    }\n    return (_pollID, yeaVotes, nayVotes);\n  }\n\n  /*\n   * Checks if a user has voted for a specific poll.\n   */\n  function userHasVoted(uint _pollID, address _user) public view validPoll(_pollID) returns (bool) {\n    return (polls[_pollID].voterInfo[_user].hasVoted);\n  }\n\n  /* TOKEN OPERATIONS */\n\n  /*\n   * Stakes tokens for a given voter in return for voting credits.\n   * NOTE:\n   *  User must approve transfer of tokens.\n   *  _numTokens is denominated in *wei*.\n   */\n  function stakeVotingTokens(uint _numTokens) external {\n    require(token.balanceOf(msg.sender) >= _numTokens, \"User does not have enough tokens\");\n    require(token.transferFrom(msg.sender, this, _numTokens), \"User did not approve token transfer.\");\n    bank[msg.sender].tokenBalance += _numTokens;\n  }\n\n  /*\n   * Allows a voter to withdraw voting tokens after a poll has ended.\n   * NOTE: _numTokens is denominated in *wei*.\n   */\n  function withdrawTokens(uint _numTokens) external {\n    uint largest = getLockedAmount(msg.sender);\n    require(getTokenStake(msg.sender) - largest >= _numTokens, \"User is trying to withdraw too many tokens.\");\n    bank[msg.sender].tokenBalance -= _numTokens;\n    require(token.transfer(msg.sender, _numTokens));\n  }\n\n  /*\n   * Gets the amount of Voting Tokens that are locked for a given voter.\n   */\n  function getLockedAmount(address _voter) public view returns (uint) {\n    TokenManager storage manager = bank[_voter];\n    uint largest;\n    for (uint i = 0; i < manager.participatedPolls.length; i++) {\n      uint curPollID = manager.participatedPolls[i];\n      if (manager.lockedTokens[curPollID] > largest) largest = manager.lockedTokens[curPollID];\n    }\n    return largest;\n  }\n\n  /*\n   * Gets the amount of Voting Credits for a given voter.\n   */\n  function getTokenStake(address _voter) public view returns(uint) {\n    return bank[_voter].tokenBalance;\n  }\n\n  /*\n   * Helper function that updates active token balances after a poll has ended.\n   */\n  function updateTokenBank(uint _pollID) internal {\n    Poll memory curPoll = polls[_pollID];\n    for (uint i = 0; i < curPoll.voters.length; i++) {\n      address voter = curPoll.voters[i];\n      bank[voter].lockedTokens[_pollID] = 0;\n    }\n  }\n\n}",
  "sourcePath": "/Users/adityapalepu/Startups/enigma/enigma-template-dapp/contracts/Voting.sol",
  "compiler": {
    "name": "solc",
    "version": "0.4.24+commit.e67f0147.Emscripten.clang"
  },
  "schemaVersion": "2.0.0",
  "updatedAt": "2018-10-31T18:30:57.521Z"
}