{
  "contractName": "Voting",
  "abi": [
    {
      "constant": true,
      "inputs": [
        {
          "name": "",
          "type": "address"
        }
      ],
      "name": "bank",
      "outputs": [
        {
          "name": "tokenBalance",
          "type": "uint256"
        }
      ],
      "payable": false,
      "stateMutability": "view",
      "type": "function",
      "signature": "0x529a1baf"
    },
    {
      "constant": true,
      "inputs": [],
      "name": "pollCount",
      "outputs": [
        {
          "name": "",
          "type": "uint256"
        }
      ],
      "payable": false,
      "stateMutability": "view",
      "type": "function",
      "signature": "0x9207891d"
    },
    {
      "constant": true,
      "inputs": [
        {
          "name": "",
          "type": "uint256"
        }
      ],
      "name": "polls",
      "outputs": [
        {
          "name": "creator",
          "type": "address"
        },
        {
          "name": "status",
          "type": "uint8"
        },
        {
          "name": "quorumPercentage",
          "type": "uint256"
        },
        {
          "name": "yeaVotes",
          "type": "uint256"
        },
        {
          "name": "nayVotes",
          "type": "uint256"
        },
        {
          "name": "description",
          "type": "string"
        },
        {
          "name": "expirationTime",
          "type": "uint256"
        }
      ],
      "payable": false,
      "stateMutability": "view",
      "type": "function",
      "signature": "0xac2f0074"
    },
    {
      "constant": true,
      "inputs": [],
      "name": "enigma",
      "outputs": [
        {
          "name": "",
          "type": "address"
        }
      ],
      "payable": false,
      "stateMutability": "view",
      "type": "function",
      "signature": "0xb24fd5c5"
    },
    {
      "constant": true,
      "inputs": [],
      "name": "token",
      "outputs": [
        {
          "name": "",
          "type": "address"
        }
      ],
      "payable": false,
      "stateMutability": "view",
      "type": "function",
      "signature": "0xfc0c546a"
    },
    {
      "inputs": [
        {
          "name": "_token",
          "type": "address"
        },
        {
          "name": "_enigma",
          "type": "address"
        }
      ],
      "payable": false,
      "stateMutability": "nonpayable",
      "type": "constructor",
      "signature": "constructor"
    },
    {
      "anonymous": false,
      "inputs": [
        {
          "indexed": false,
          "name": "voter",
          "type": "address"
        },
        {
          "indexed": false,
          "name": "pollID",
          "type": "uint256"
        },
        {
          "indexed": false,
          "name": "vote",
          "type": "bytes"
        },
        {
          "indexed": false,
          "name": "weight",
          "type": "uint256"
        }
      ],
      "name": "VoteCasted",
      "type": "event",
      "signature": "0x197fc78b246f63a6d423c111441453a9ad490ae1e79d788964fad65830529bdb"
    },
    {
      "anonymous": false,
      "inputs": [
        {
          "indexed": false,
          "name": "creator",
          "type": "address"
        },
        {
          "indexed": false,
          "name": "pollID",
          "type": "uint256"
        },
        {
          "indexed": false,
          "name": "quorumPercentage",
          "type": "uint256"
        },
        {
          "indexed": false,
          "name": "description",
          "type": "string"
        },
        {
          "indexed": false,
          "name": "votingLength",
          "type": "uint256"
        }
      ],
      "name": "PollCreated",
      "type": "event",
      "signature": "0xcc531bf635d112cb09fabd983bdb4c5171afcfdf03684af2dbb49e599e601ebf"
    },
    {
      "anonymous": false,
      "inputs": [
        {
          "indexed": false,
          "name": "status",
          "type": "bool"
        }
      ],
      "name": "PollStatusUpdate",
      "type": "event",
      "signature": "0x78b888acad513d513414f76ef89ab3acc8a90ea2643fa5e2d5d706f87aa4d2ce"
    },
    {
      "constant": false,
      "inputs": [
        {
          "name": "_quorumPct",
          "type": "uint256"
        },
        {
          "name": "_description",
          "type": "string"
        },
        {
          "name": "_voteLength",
          "type": "uint256"
        }
      ],
      "name": "createPoll",
      "outputs": [
        {
          "name": "",
          "type": "uint256"
        }
      ],
      "payable": false,
      "stateMutability": "nonpayable",
      "type": "function",
      "signature": "0x236e1b93"
    },
    {
      "constant": true,
      "inputs": [
        {
          "name": "_pollID",
          "type": "uint256"
        }
      ],
      "name": "getPollStatus",
      "outputs": [
        {
          "name": "",
          "type": "uint8"
        }
      ],
      "payable": false,
      "stateMutability": "view",
      "type": "function",
      "signature": "0xb0c095e3"
    },
    {
      "constant": true,
      "inputs": [
        {
          "name": "_pollID",
          "type": "uint256"
        }
      ],
      "name": "getPollExpirationTime",
      "outputs": [
        {
          "name": "",
          "type": "uint256"
        }
      ],
      "payable": false,
      "stateMutability": "view",
      "type": "function",
      "signature": "0xe7f76619"
    },
    {
      "constant": true,
      "inputs": [
        {
          "name": "_voter",
          "type": "address"
        }
      ],
      "name": "getPollHistory",
      "outputs": [
        {
          "name": "",
          "type": "uint256[]"
        }
      ],
      "payable": false,
      "stateMutability": "view",
      "type": "function",
      "signature": "0x0de88fd8"
    },
    {
      "constant": true,
      "inputs": [
        {
          "name": "_pollID",
          "type": "uint256"
        },
        {
          "name": "_voter",
          "type": "address"
        }
      ],
      "name": "getPollInfoForVoter",
      "outputs": [
        {
          "name": "",
          "type": "bytes"
        },
        {
          "name": "",
          "type": "uint256"
        }
      ],
      "payable": false,
      "stateMutability": "view",
      "type": "function",
      "signature": "0x6cee7be5"
    },
    {
      "constant": true,
      "inputs": [
        {
          "name": "_pollID",
          "type": "uint256"
        }
      ],
      "name": "getVotersForPoll",
      "outputs": [
        {
          "name": "",
          "type": "address[]"
        }
      ],
      "payable": false,
      "stateMutability": "view",
      "type": "function",
      "signature": "0xdf78b81c"
    },
    {
      "constant": false,
      "inputs": [
        {
          "name": "_pollID",
          "type": "uint256"
        },
        {
          "name": "_encryptedVote",
          "type": "bytes"
        },
        {
          "name": "_weight",
          "type": "uint256"
        }
      ],
      "name": "castVote",
      "outputs": [],
      "payable": false,
      "stateMutability": "nonpayable",
      "type": "function",
      "signature": "0x291ae9b3"
    },
    {
      "constant": true,
      "inputs": [
        {
          "name": "_pollID",
          "type": "uint256"
        },
        {
          "name": "_user",
          "type": "address"
        }
      ],
      "name": "userHasVoted",
      "outputs": [
        {
          "name": "",
          "type": "bool"
        }
      ],
      "payable": false,
      "stateMutability": "view",
      "type": "function",
      "signature": "0x5fc48d7e"
    },
    {
      "constant": false,
      "inputs": [
        {
          "name": "_numTokens",
          "type": "uint256"
        }
      ],
      "name": "stakeVotingTokens",
      "outputs": [],
      "payable": false,
      "stateMutability": "nonpayable",
      "type": "function",
      "signature": "0x0da65600"
    },
    {
      "constant": false,
      "inputs": [
        {
          "name": "_numTokens",
          "type": "uint256"
        }
      ],
      "name": "withdrawTokens",
      "outputs": [],
      "payable": false,
      "stateMutability": "nonpayable",
      "type": "function",
      "signature": "0x315a095d"
    },
    {
      "constant": true,
      "inputs": [
        {
          "name": "_voter",
          "type": "address"
        }
      ],
      "name": "getLockedAmount",
      "outputs": [
        {
          "name": "",
          "type": "uint256"
        }
      ],
      "payable": false,
      "stateMutability": "view",
      "type": "function",
      "signature": "0x929ec537"
    },
    {
      "constant": true,
      "inputs": [
        {
          "name": "_voter",
          "type": "address"
        }
      ],
      "name": "getTokenStake",
      "outputs": [
        {
          "name": "",
          "type": "uint256"
        }
      ],
      "payable": false,
      "stateMutability": "view",
      "type": "function",
      "signature": "0x0ed70ed1"
    },
    {
      "constant": true,
      "inputs": [
        {
          "name": "_pollID",
          "type": "uint256"
        },
        {
          "name": "_votes",
          "type": "uint256[]"
        },
        {
          "name": "_weights",
          "type": "uint256[]"
        }
      ],
      "name": "countVotes",
      "outputs": [
        {
          "name": "",
          "type": "uint256"
        },
        {
          "name": "",
          "type": "uint256"
        },
        {
          "name": "",
          "type": "uint256"
        }
      ],
      "payable": false,
      "stateMutability": "pure",
      "type": "function",
      "signature": "0xd2025b1d"
    },
    {
      "constant": false,
      "inputs": [
        {
          "name": "_pollID",
          "type": "uint256"
        },
        {
          "name": "_yeaVotes",
          "type": "uint256"
        },
        {
          "name": "_nayVotes",
          "type": "uint256"
        }
      ],
      "name": "updatePollStatus",
      "outputs": [],
      "payable": false,
      "stateMutability": "nonpayable",
      "type": "function",
      "signature": "0x4e0e931a"
    }
  ],
  "bytecode": "0x608060405234801561001057600080fd5b50604051604080611cb3833981016040528051602090910151600160a060020a0382161580159061004a5750600354600160a060020a0316155b151561005557600080fd5b600160a060020a038116158015906100765750600454600160a060020a0316155b151561008157600080fd5b60038054600160a060020a03938416600160a060020a03199182161790915560048054929093169116179055611bf7806100bc6000396000f3006080604052600436106101065763ffffffff7c01000000000000000000000000000000000000000000000000000000006000350416630da65600811461010b5780630de88fd8146101255780630ed70ed114610196578063236e1b93146101c9578063291ae9b3146101f0578063315a095d146102175780634e0e931a1461022f578063529a1baf1461024d5780635fc48d7e1461026e5780636cee7be5146102a65780639207891d14610349578063929ec5371461035e578063ac2f00741461037f578063b0c095e314610450578063b24fd5c51461048c578063d2025b1d146104bd578063df78b81c1461056e578063e7f7661914610586578063fc0c546a1461059e575b600080fd5b34801561011757600080fd5b506101236004356105b3565b005b34801561013157600080fd5b50610146600160a060020a03600435166107cc565b60408051602080825283518183015283519192839290830191858101910280838360005b8381101561018257818101518382015260200161016a565b505050509050019250505060405180910390f35b3480156101a257600080fd5b506101b7600160a060020a036004351661083b565b60408051918252519081900360200190f35b3480156101d557600080fd5b506101b7600480359060248035908101910135604435610856565b3480156101fc57600080fd5b50610123600480359060248035908101910135604435610b16565b34801561022357600080fd5b50610123600435610ee2565b34801561023b57600080fd5b50610123600435602435604435611034565b34801561025957600080fd5b506101b7600160a060020a03600435166111b1565b34801561027a57600080fd5b50610292600435600160a060020a03602435166111c3565b604080519115158252519081900360200190f35b3480156102b257600080fd5b506102ca600435600160a060020a036024351661125f565b6040518080602001838152602001828103825284818151815260200191508051906020019080838360005b8381101561030d5781810151838201526020016102f5565b50505050905090810190601f16801561033a5780820380516001836020036101000a031916815260200191505b50935050505060405180910390f35b34801561035557600080fd5b506101b76113b5565b34801561036a57600080fd5b506101b7600160a060020a03600435166113bb565b34801561038b57600080fd5b50610397600435611446565b604051600160a060020a0388168152602081018760028111156103b657fe5b60ff16815260200186815260200185815260200184815260200180602001838152602001828103825284818151815260200191508051906020019080838360005b8381101561040f5781810151838201526020016103f7565b50505050905090810190601f16801561043c5780820380516001836020036101000a031916815260200191505b509850505050505050505060405180910390f35b34801561045c57600080fd5b50610468600435611531565b6040518082600281111561047857fe5b60ff16815260200191505060405180910390f35b34801561049857600080fd5b506104a16115ba565b60408051600160a060020a039092168252519081900360200190f35b3480156104c957600080fd5b5060408051602060046024803582810135848102808701860190975280865261055096843596369660449591949091019291829185019084908082843750506040805187358901803560208181028481018201909552818452989b9a9989019892975090820195509350839250850190849080828437509497506115c99650505050505050565b60408051938452602084019290925282820152519081900360600190f35b34801561057a57600080fd5b50610146600435611683565b34801561059257600080fd5b506101b760043561175c565b3480156105aa57600080fd5b506104a16117dd565b600354604080517f70a0823100000000000000000000000000000000000000000000000000000000815233600482015290518392600160a060020a0316916370a082319160248083019260209291908290030181600087803b15801561061857600080fd5b505af115801561062c573d6000803e3d6000fd5b505050506040513d602081101561064257600080fd5b5051101561069a576040805160e560020a62461bcd02815260206004820181905260248201527f5573657220646f6573206e6f74206861766520656e6f75676820746f6b656e73604482015290519081900360640190fd5b600354604080517f23b872dd000000000000000000000000000000000000000000000000000000008152336004820152306024820152604481018490529051600160a060020a03909216916323b872dd916064808201926020929091908290030181600087803b15801561070d57600080fd5b505af1158015610721573d6000803e3d6000fd5b505050506040513d602081101561073757600080fd5b505115156107b4576040805160e560020a62461bcd028152602060048201526024808201527f5573657220646964206e6f7420617070726f766520746f6b656e207472616e7360448201527f6665722e00000000000000000000000000000000000000000000000000000000606482015290519081900360840190fd5b33600090815260016020526040902080549091019055565b600160a060020a03811660009081526001602090815260409182902060020180548351818402810184019094528084526060939283018282801561082f57602002820191906000526020600020905b81548152602001906001019080831161081b575b50505050509050919050565b600160a060020a031660009081526001602052604090205490565b6000610860611a2b565b60648611156108df576040805160e560020a62461bcd02815260206004820152603460248201527f51756f72756d2050657263656e74616765206d757374206265206c657373207460448201527f68616e206f7220657175616c20746f2031303025000000000000000000000000606482015290519081900360840190fd5b60008311610937576040805160e560020a62461bcd02815260206004820152601e60248201527f54686520766f74696e6720706572696f642063616e6e6f7420626520302e0000604482015290519081900360640190fd5b33815260006020820181905250604080820187905280516020601f87018190048102820181019092528581529086908690819084018382808284375050505060a0840192909252505042830160e08201526000805460018101808355918052825160089091027f290decd9548b62a8d60345a988386fc84ba6bc95484008f6362f93160ef3e563018054600160a060020a0390921673ffffffffffffffffffffffffffffffffffffffff19909216919091178082556020840151849291829074ff0000000000000000000000000000000000000000191660a060020a836002811115610a1f57fe5b021790555060408201516001820155606082015160028201556080820151600382015560a08201518051610a5d916004840191602090910190611a71565b5060c08201518051610a79916005840191602090910190611aef565b5060e091909101516006909101555060028054600101908190556040805133808252602082018490529181018990526080810186905260a0606082018181529082018890527fcc531bf635d112cb09fabd983bdb4c5171afcfdf03684af2dbb49e599e601ebf93918a918a918a918a919060c082018585808284376040519201829003995090975050505050505050a15050600254949350505050565b60008460008110158015610b2b575060025481105b1515610b6f576040805160e560020a62461bcd0281526020600482015260146024820152600080516020611bac833981519152604482015290519081900360640190fd5b6000610b7a87611531565b6002811115610b8557fe5b14610bda576040805160e560020a62461bcd02815260206004820152601160248201527f506f6c6c2068617320657870697265642e000000000000000000000000000000604482015290519081900360640190fd5b610be486336111c3565b15610c39576040805160e560020a62461bcd02815260206004820152601760248201527f557365722068617320616c726561647920766f7465642e000000000000000000604482015290519081900360640190fd5b42610c438761175c565b11610c4d57600080fd5b82610c573361083b565b1015610cd3576040805160e560020a62461bcd02815260206004820152602860248201527f5573657220646f6573206e6f74206861766520656e6f756768207374616b656460448201527f20746f6b656e732e000000000000000000000000000000000000000000000000606482015290519081900360840190fd5b60008311610d51576040805160e560020a62461bcd02815260206004820152602360248201527f55736572206d7573742061646420612077656967687420666f7220746865207660448201527f6f74650000000000000000000000000000000000000000000000000000000000606482015290519081900360840190fd5b3360009081526001602081815260408084208a85528084018352908420879055828252600201805492830181558352822001879055805487908110610d9257fe5b9060005260206000209060080201915060606040519081016040528060011515815260200186868080601f0160208091040260200160405190810160405280939291908181526020018383808284375050509284525050506020908101859052336000908152600785018252604090208251815460ff19169015151781558282015180519192610e2a92600185019290910190611a71565b50604091820151600290910155600583018054600181018255600091825260209182902001805473ffffffffffffffffffffffffffffffffffffffff19163390811790915582518181529182018990526060820186905260809282018381529282018790527f197fc78b246f63a6d423c111441453a9ad490ae1e79d788964fad65830529bdb92909189918991899189919060a0820185858082843760405192018290039850909650505050505050a1505050505050565b6000610eed336113bb565b90508181610efa3361083b565b031015610f77576040805160e560020a62461bcd02815260206004820152602b60248201527f5573657220697320747279696e6720746f20776974686472617720746f6f206d60448201527f616e7920746f6b656e732e000000000000000000000000000000000000000000606482015290519081900360840190fd5b3360008181526001602090815260408083208054879003905560035481517fa9059cbb0000000000000000000000000000000000000000000000000000000081526004810195909552602485018790529051600160a060020a039091169363a9059cbb9360448083019493928390030190829087803b158015610ff957600080fd5b505af115801561100d573d6000803e3d6000fd5b505050506040513d602081101561102357600080fd5b5051151561103057600080fd5b5050565b600080846000811015801561104a575060025481105b151561108e576040805160e560020a62461bcd0281526020600482015260146024820152600080516020611bac833981519152604482015290519081900360640190fd5b600454600160a060020a031633146110a557600080fd5b60008054879081106110b357fe5b60009182526020909120600890910201600281018690556003810185905592506110f16110e086866117ec565b60018501549063ffffffff6117ff16565b600284015461110790606463ffffffff6117ff16565b119150811561113757825474ff0000000000000000000000000000000000000000191660a060020a17835561116b565b825474ff00000000000000000000000000000000000000001916740200000000000000000000000000000000000000001783555b61117486611828565b60408051831515815290517f78b888acad513d513414f76ef89ab3acc8a90ea2643fa5e2d5d706f87aa4d2ce9181900360200190a1505050505050565b60016020526000908152604090205481565b600082600081101580156111d8575060025481105b151561121c576040805160e560020a62461bcd0281526020600482015260146024820152600080516020611bac833981519152604482015290519081900360640190fd5b600080548590811061122a57fe5b60009182526020808320600160a060020a03871684526007600890930201919091019052604090205460ff1691505092915050565b6060600080600080866000811015801561127a575060025481105b15156112be576040805160e560020a62461bcd0281526020600482015260146024820152600080516020611bac833981519152604482015290519081900360640190fd5b6112c888886111c3565b15156112d357600080fd5b60008054899081106112e157fe5b60009182526020808320600160a060020a038b1684526008929092029091016007810182526040928390206002808201546001928301805487519481161561010002600019011692909204601f810186900486028401860190965285835292985096509094508592859284919083018282801561139f5780601f106113745761010080835404028352916020019161139f565b820191906000526020600020905b81548152906001019060200180831161138257829003601f168201915b5050505050915095509550505050509250929050565b60025481565b600160a060020a03811660009081526001602052604081208180805b600284015482101561143c57600284018054839081106113f357fe5b906000526020600020015490508284600101600083815260200190815260200160002054111561143157600081815260018501602052604090205492505b6001909101906113d7565b5090949350505050565b600080548290811061145457fe5b600091825260209182902060089190910201805460018083015460028085015460038601546004870180546040805161010098831615989098026000190190911694909404601f81018a90048a0287018a01909452838652600160a060020a038716995060a060020a90960460ff16979396919590949193919290918301828280156115215780601f106114f657610100808354040283529160200191611521565b820191906000526020600020905b81548152906001019060200180831161150457829003601f168201915b5050505050908060060154905087565b60008160008110158015611546575060025481105b151561158a576040805160e560020a62461bcd0281526020600482015260146024820152600080516020611bac833981519152604482015290519081900360640190fd5b600080548490811061159857fe5b600091825260209091206008909102015460a060020a900460ff169392505050565b600454600160a060020a031681565b600080600080600080865188511415156115e257600080fd5b5060005b87518110156116755787818151811015156115fd57fe5b906020019060200201516000141561163057868181518110151561161d57fe5b906020019060200201518201915061166d565b878181518110151561163e57fe5b906020019060200201516001141561166d57868181518110151561165e57fe5b90602001906020020151830192505b6001016115e6565b509697909695509350505050565b60608160008110158015611698575060025481105b15156116dc576040805160e560020a62461bcd0281526020600482015260146024820152600080516020611bac833981519152604482015290519081900360640190fd5b60008054849081106116ea57fe5b906000526020600020906008020160050180548060200260200160405190810160405280929190818152602001828054801561174f57602002820191906000526020600020905b8154600160a060020a03168152600190910190602001808311611731575b5050505050915050919050565b60008160008110158015611771575060025481105b15156117b5576040805160e560020a62461bcd0281526020600482015260146024820152600080516020611bac833981519152604482015290519081900360640190fd5b60008054849081106117c357fe5b906000526020600020906008020160060154915050919050565b600354600160a060020a031681565b818101828110156117f957fe5b92915050565b6000821515611810575060006117f9565b5081810281838281151561182057fe5b04146117f957fe5b611830611a2b565b60008060008481548110151561184257fe5b60009182526020918290206040805161010081019091526008909202018054600160a060020a0381168352919290919083019060ff60a060020a90910416600281111561188b57fe5b600281111561189657fe5b8152602001600182015481526020016002820154815260200160038201548152602001600482018054600181600116156101000203166002900480601f0160208091040260200160405190810160405280929190818152602001828054600181600116156101000203166002900480156119515780601f1061192657610100808354040283529160200191611951565b820191906000526020600020905b81548152906001019060200180831161193457829003601f168201915b50505050508152602001600582018054806020026020016040519081016040528092919081815260200182805480156119b357602002820191906000526020600020905b8154600160a060020a03168152600190910190602001808311611995575b505050505081526020016006820154815250509250600091505b8260c0015151821015611a255760c08301518051839081106119eb57fe5b6020908102909101810151600160a060020a03811660009081526001808452604080832089845282019094529281205592019190506119cd565b50505050565b6040805161010081019091526000808252602082019081526020016000815260200160008152602001600081526020016060815260200160608152602001600081525090565b828054600181600116156101000203166002900490600052602060002090601f016020900481019282601f10611ab257805160ff1916838001178555611adf565b82800160010185558215611adf579182015b82811115611adf578251825591602001919060010190611ac4565b50611aeb929150611b5d565b5090565b828054828255906000526020600020908101928215611b51579160200282015b82811115611b51578251825473ffffffffffffffffffffffffffffffffffffffff1916600160a060020a03909116178255602090920191600190910190611b0f565b50611aeb929150611b7a565b611b7791905b80821115611aeb5760008155600101611b63565b90565b611b7791905b80821115611aeb57805473ffffffffffffffffffffffffffffffffffffffff19168155600101611b8056004e6f7420612076616c696420706f6c6c2049642e000000000000000000000000a165627a7a72305820977fb8ae252b77473e6227e8a6621e897cc29cc85abf09ee85abd21f8f7cb9940029",
  "source": "pragma solidity ^0.4.24;\n\n\nimport \"openzeppelin-solidity/contracts/math/SafeMath.sol\";\nimport \"./VotingToken.sol\";\n\ncontract Voting {\n  using SafeMath for uint;\n\n  // Array of Poll structs\n  Poll[] public polls;\n  // Mapping of TokenManager structs for users\n  mapping(address => TokenManager) public bank;\n  // Number of polls that have been created\n  uint public pollCount;\n  // Mintable VotingToken\n  VotingToken public token;\n  address public enigma;\n\n  // Voter struct which holds, most notably, the weight and encrypted vote\n  struct Voter {\n    bool hasVoted;\n    bytes vote;\n    uint weight;\n  }\n\n  // Poll struct which holds poll information, including mapping of voterInfo \n  struct Poll {\n    address creator;\n    PollStatus status;\n    uint quorumPercentage;\n    uint yeaVotes;\n    uint nayVotes;\n    string description;\n    address[] voters;\n    uint expirationTime;\n    mapping(address => Voter) voterInfo;\n  }\n\n  // Token manager struct holding address' token information \n  struct TokenManager {\n    // Address' token balance\n    uint tokenBalance;\n    // Mapping of address' locked token count in any given active poll\n    mapping(uint => uint) lockedTokens;\n    // Array of polls address has participated in \n    uint[] participatedPolls;\n  }\n\n  // Event emitted upon casting a vote\n  event VoteCasted(address voter, uint pollID, bytes vote, uint weight);\n  // Event emitted upon creating a poll\n  event PollCreated(address creator, uint pollID, uint quorumPercentage, \n    string description, uint votingLength);\n  // Event emitted upon callback completion; watched from front end\n  event PollStatusUpdate(bool status);\n\n  // Enum for current state of a poll\n  enum PollStatus { IN_PROGRESS, PASSED, REJECTED }\n\n  // Modifier to ensure the poll id is a valid one\n  modifier validPoll(uint _pollID) {\n    require(_pollID >= 0 && _pollID < pollCount, \"Not a valid poll Id.\");\n    _;\n  }\n\n  // Modifier to ensure only enigma contract can call function\n  modifier onlyEnigma() {\n    require(msg.sender == enigma);\n    _;\n  }\n\n  // Constructor called when new contract is deployed\n  constructor(address _token, address _enigma) public {\n    require(_token != 0 && address(token) == 0);\n    require(_enigma != 0 && address(enigma) == 0);\n    token = VotingToken(_token);\n    enigma = _enigma;\n  }\n\n  // ** POLL OPERATIONS ** //\n  // Create new poll with quorum percentage, description, and vote length (s)\n  function createPoll(uint _quorumPct, string _description, uint _voteLength) \n    external \n    returns (uint)\n  {\n    require(_quorumPct <= 100, \n      \"Quorum Percentage must be less than or equal to 100%\");\n    require(_voteLength > 0, \"The voting period cannot be 0.\");\n    Poll memory curPoll;\n    curPoll.creator = msg.sender;\n    curPoll.status = PollStatus.IN_PROGRESS;\n    curPoll.quorumPercentage = _quorumPct;\n    curPoll.description = _description;\n    curPoll.expirationTime = now + _voteLength * 1 seconds;\n    polls.push(curPoll);\n    pollCount++; \n    emit PollCreated(msg.sender, pollCount, _quorumPct, _description, \n      _voteLength); \n    return pollCount; \n  }\n\n  // Get the status of a poll\n  function getPollStatus(uint _pollID) \n    public \n    view \n    validPoll(_pollID) \n    returns (PollStatus) \n  {\n    return polls[_pollID].status;\n  }\n\n  // Get the expiration date of a poll\n  function getPollExpirationTime(uint _pollID) \n    public \n    view\n    validPoll(_pollID) \n    returns (uint) \n  {\n    return polls[_pollID].expirationTime;\n  }\n\n  // Get list of polls user has voted in\n  function getPollHistory(address _voter) public view returns(uint[]) {\n    return bank[_voter].participatedPolls;\n  }\n\n  // Get encrypted vote and weight for a particular poll and user\n  function getPollInfoForVoter(uint _pollID, address _voter) \n    public \n    view \n    validPoll(_pollID) \n    returns (bytes, uint) \n  {\n    require(userHasVoted(_pollID, _voter));\n    Poll storage curPoll = polls[_pollID];\n    bytes vote = curPoll.voterInfo[_voter].vote;\n    uint weight = curPoll.voterInfo[_voter].weight;\n    return (vote, weight);\n  }\n\n  // Get all the voters for a particular poll\n  function getVotersForPoll(uint _pollID) \n    public \n    view \n    validPoll(_pollID) \n    returns (address[]) \n  {\n    return polls[_pollID].voters;\n  }\n\n  // ** VOTE OPERATIONS ** //\n  // Cast a vote for a poll with encrypted vote and weight arguments\n  function castVote(uint _pollID, bytes _encryptedVote, uint _weight) \n    external \n    validPoll(_pollID) \n  {\n    require(getPollStatus(_pollID) == PollStatus.IN_PROGRESS, \n      \"Poll has expired.\");\n    require(!userHasVoted(_pollID, msg.sender), \"User has already voted.\");\n    require(getPollExpirationTime(_pollID) > now);\n    require(getTokenStake(msg.sender) >= _weight, \n      \"User does not have enough staked tokens.\");\n    require(_weight > 0, \"User must add a weight for the vote\"); \n    bank[msg.sender].lockedTokens[_pollID] = _weight;\n    bank[msg.sender].participatedPolls.push(_pollID);\n    Poll storage curPoll = polls[_pollID];\n    curPoll.voterInfo[msg.sender] = Voter({\n        hasVoted: true,\n        vote: _encryptedVote,\n        weight: _weight\n    });\n    curPoll.voters.push(msg.sender);\n    emit VoteCasted(msg.sender, _pollID, _encryptedVote, _weight);\n  }\n\n  // Check if user has voted in a specific poll\n  function userHasVoted(uint _pollID, address _user) \n    public \n    view \n    validPoll(_pollID) \n    returns (bool) \n  {\n    return (polls[_pollID].voterInfo[_user].hasVoted);\n  }\n\n  // ** TOKEN OPERATIONS ** //\n  // Stake voting tokens in contract\n  function stakeVotingTokens(uint _numTokens) external {\n    require(token.balanceOf(msg.sender) >= _numTokens, \n      \"User does not have enough tokens\");\n    require(token.transferFrom(msg.sender, this, _numTokens), \n      \"User did not approve token transfer.\");\n    bank[msg.sender].tokenBalance += _numTokens;\n  }\n\n  // Withdraw voting tokens from contract\n  function withdrawTokens(uint _numTokens) external {\n    uint largest = getLockedAmount(msg.sender);\n    require(getTokenStake(msg.sender) - largest >= _numTokens, \n      \"User is trying to withdraw too many tokens.\");\n    bank[msg.sender].tokenBalance -= _numTokens;\n    require(token.transfer(msg.sender, _numTokens));\n  }\n\n  // Get locked token amount for a voter due to active polls\n  function getLockedAmount(address _voter) public view returns (uint) {\n    TokenManager storage manager = bank[_voter];\n    uint largest;\n    for (uint i = 0; i < manager.participatedPolls.length; i++) {\n      uint curPollID = manager.participatedPolls[i];\n      if (manager.lockedTokens[curPollID] > largest) {\n        largest = manager.lockedTokens[curPollID];\n      } \n    }\n    return largest;\n  }\n\n  // Get staked token amount in voting contract\n  function getTokenStake(address _voter) public view returns(uint) {\n    return bank[_voter].tokenBalance;\n  }\n\n  // Helper function to update active token balances after poll has ended\n  function updateTokenBank(uint _pollID) internal {\n    Poll memory curPoll = polls[_pollID];\n    for (uint i = 0; i < curPoll.voters.length; i++) {\n      address voter = curPoll.voters[i];\n      bank[voter].lockedTokens[_pollID] = 0;\n    }\n  }\n\n  /*\n  CALLABLE FUNCTION run in SGX to decipher encrypted votes and weights to \n  tally results of poll\n  */\n  function countVotes(uint _pollID, uint[] _votes, uint[] _weights) \n    public \n    pure \n    returns (uint, uint, uint) \n  {\n    require(_votes.length == _weights.length);\n    uint yeaVotes;\n    uint nayVotes;\n    for (uint i = 0; i < _votes.length; i++) {\n      if (_votes[i] == 0) nayVotes += _weights[i];\n      else if (_votes[i] == 1) yeaVotes += _weights[i];\n    }\n    return (_pollID, yeaVotes, nayVotes);\n  }\n\n  /*\n  CALLBACK FUNCTION to change contract state with poll results\n  */\n  function updatePollStatus(uint _pollID, uint _yeaVotes, uint _nayVotes) \n    public \n    validPoll(_pollID) \n    onlyEnigma() \n  {\n    Poll storage curPoll = polls[_pollID];\n    curPoll.yeaVotes = _yeaVotes;\n    curPoll.nayVotes = _nayVotes;\n    bool pollStatus = (curPoll.yeaVotes.mul(100)) > \n      curPoll.quorumPercentage.mul(curPoll.yeaVotes.add(curPoll.nayVotes));\n    if (pollStatus) {\n      curPoll.status = PollStatus.PASSED;\n    }\n    else {\n      curPoll.status = PollStatus.REJECTED;\n    }\n    updateTokenBank(_pollID);\n    emit PollStatusUpdate(pollStatus);\n  }\n}",
  "sourcePath": "/Users/adityapalepu/Startups/enigma/enigma-template-dapp/contracts/Voting.sol",
  "compiler": {
    "name": "solc",
    "version": "0.4.24+commit.e67f0147.Emscripten.clang"
  },
  "schemaVersion": "2.0.0",
  "updatedAt": "2018-11-09T01:39:57.158Z"
}